:020000040800F2
:100000000000012031780008273B0008293B000848
:100010002B3B00082D3B00082F3B00080000000090
:10002000000000000000000000000000313B00085C
:10003000333B000800000000353B0008373B000858
:1000400081780008817800088178000881780008AC
:10005000817800088178000881780008817800089C
:10006000817800088178000881780008817800088C
:10007000817800088178000881780008817800087C
:10008000817800088178000881780008000000006D
:10009000000000000000000000000000817800085F
:1000A000817800088178000881780008817800084C
:1000B000817800088178000881780008817800083C
:1000C000817800088178000881780008817800082C
:1000D000817800088178000881780008000000001D
:1000E000817800088178000881780008000000000D
:1000F00000000000000000000000000081780008FF
:1001000000000000817800088178000881780008EC
:1001100000000000000000000000000000000000DF
:1001200081780008817800088178000881780008CB
:1001300081780008000000000000000000000000BE
:10014000000000000000000000000000413B00082B
:10015000817800088178000881780008817800089B
:10016000817800088178000800000000000000008D
:10017000000000000000000000000000000000007F
:10018000000000008178000800000000000000006E
:04019000817800086A
:1001A00010B5054C237833B9044B13B10448AFF3B1
:1001B00000800123237010BDC80200200000000051
:1001C0002479000808B5034B1BB103490348AFF37A
:1001D000008008BD00000000CC0200202479000847
:1001E000034613F8012B002AFBD1181A0138704777
:1001F00001F0FF01102A2BDB10F0070F08D010F8D8
:10020000013B013A8B422DD010F0070F42B3F6D1DB
:10021000F0B441EA012141EA014122F007047FF0F4
:1002200000070023F0E80256083C85EA010586EA4B
:10023000010685FA47F5A3FA87F586FA47F6A5FA87
:1002400087F68EB9EED1F0BC01F0FF0102F0070293
:1002500032B110F8013B013A83EA010313B1F8D13E
:100260000020704701387047002D06BF354603381F
:10027000073815F0010F07D1013015F4807F02BF58
:10028000013015F4C03F0130F0BC0138704700BFA9
:1002900081F0004102E000BF83F0004330B54FEA37
:1002A00041044FEA430594EA050F08BF90EA020FA4
:1002B0001FBF54EA000C55EA020C7FEA645C7FEA37
:1002C000655C00F0E2804FEA5454D4EB5555B8BF5A
:1002D0006D420CDD2C4480EA020281EA030382EACB
:1002E000000083EA010180EA020281EA0303362D5D
:1002F00088BF30BD11F0004F4FEA01314FF4801C30
:100300004CEA113102D0404261EB410113F0004F41
:100310004FEA03334CEA133302D0524263EB4303F8
:1003200094EA050F00F0A780A4F10104D5F1200E96
:100330000DDB02FA0EFC22FA05F2801841F10001F1
:1003400003FA0EF2801843FA05F359410EE0A5F1C5
:1003500020050EF1200E012A03FA0EFC28BF4CF0F6
:10036000020C43FA05F3C01851EBE37101F00045AC
:1003700007D54FF0000EDCF1000C7EEB00006EEBB9
:100380000101B1F5801F1BD3B1F5001F0CD3490843
:100390005FEA30004FEA3C0C04F101044FEA44529A
:1003A00012F5800F80F09A80BCF1004F08BF5FEA21
:1003B000500C50F1000041EB045141EA050130BD01
:1003C0005FEA4C0C404141EB0101013C28BFB1F513
:1003D000801FE9D291F0000F04BF01460020B1FA5E
:1003E00081F308BF2033A3F10B03B3F120020CDA31
:1003F0000C3208DD02F1140CC2F10C0201FA0CF00F
:1004000021FA02F10CE002F11402D8BFC2F1200C73
:1004100001FA02F120FA0CFCDCBF41EA0C01904029
:10042000E41AA2BF01EB0451294330BD6FEA040472
:100430001F3C1CDA0C340EDC04F11404C4F120025D
:1004400020FA04F001FA02F340EA030021FA04F36F
:1004500045EA030130BDC4F10C04C4F1200220FAC6
:1004600002F001FA04F340EA0300294630BD21FA04
:1004700004F0294630BD94F0000F83F4801306BFCA
:1004800081F480110134013D4EE77FEA645C18BFBE
:100490007FEA655C29D094EA050F08BF90EA020F55
:1004A00005D054EA000C04BF1946104630BD91EA4D
:1004B000030F1EBF0021002030BD5FEA545C05D150
:1004C0004000494128BF41F0004130BD14F580048F
:1004D0003CBF01F5801130BD01F0004545F0FE4103
:1004E00041F470014FF0000030BD7FEA645C1ABF38
:1004F000194610467FEA655C1CBF0B46024650EA6F
:10050000013406BF52EA033591EA030F41F400219A
:1005100030BD00BF90F0000F04BF0021704730B520
:100520004FF4806404F132044FF000054FF00001F5
:1005300050E700BF90F0000F04BF0021704730B5B6
:100540004FF4806404F1320410F0004548BF40428B
:100550004FF000013EE700BF42004FEAE2014FEAE0
:1005600031014FEA02701FBF12F07F4393F07F4FBB
:1005700081F06051704732F07F4208BF704793F0BE
:100580007F4F04BF41F40021704730B54FF46074D1
:1005900001F0004521F000411CE700BF50EA0102D4
:1005A00008BF704730B54FF000050AE050EA01027D
:1005B00008BF704730B511F0004502D5404261EBED
:1005C00041014FF4806404F132045FEA915C3FF42E
:1005D000D8AE4FF003025FEADC0C18BF03325FEACB
:1005E000DC0C18BF033202EBDC02C2F1200300FA7C
:1005F00003FC20FA02F001FA03FE40EA0E0021FAA1
:1006000002F11444BDE600BF70B54FF0FF0C4CF48E
:10061000E06C1CEA11541DBF1CEA135594EA0C0F40
:1006200095EA0C0F00F0DEF82C4481EA030621EA7B
:100630004C5123EA4C5350EA013518BF52EA0335B6
:1006400041F4801143F4801338D0A0FB02CE4FF068
:100650000005E1FB02E506F00042E0FB03E54FF098
:100660000006E1FB03569CF0000F18BF4EF0010E90
:10067000A4F1FF04B6F5007F64F5407404D25FEA8C
:100680004E0E6D4146EB060642EAC62141EA55513F
:100690004FEAC52040EA5E504FEACE2EB4F1FD0C81
:1006A00088BFBCF5E06F1ED8BEF1004F08BF5FEAFF
:1006B000500E50F1000041EB045170BD06F00046B1
:1006C00046EA010140EA020081EA0301B4EB5C045E
:1006D000C2BFD4EB0C0541EA045170BD41F4801156
:1006E0004FF0000E013C00F3AB8014F1360FDEBF7B
:1006F000002001F0004170BDC4F10004203C35DA57
:100700000C341BDC04F11404C4F1200500FA05F3D9
:1007100020FA04F001FA05F240EA020001F000427A
:1007200021F0004110EBD37021FA04F642EB0601F0
:100730005EEA430E08BF20EAD37070BDC4F10C041A
:10074000C4F1200500FA04F320FA05F001FA04F2DE
:1007500040EA020001F0004110EBD37041F10001CA
:100760005EEA430E08BF20EAD37070BDC4F12005D5
:1007700000FA05F24EEA020E20FA04F301FA05F23D
:1007800043EA020321FA04F001F0004121FA04F2E5
:1007900020EA020000EBD3705EEA430E08BF20EAB5
:1007A000D37070BD94F0000F0FD101F000464000EF
:1007B00041EB010111F4801F08BF013CF7D041EA71
:1007C000060195F0000F18BF704703F00046520075
:1007D00043EB030313F4801F08BF013DF7D043EA46
:1007E0000603704794EA0C0F0CEA135518BF95EAFC
:1007F0000C0F0CD050EA410618BF52EA4306D1D183
:1008000081EA030101F000414FF0000070BD50EAA1
:10081000410606BF1046194652EA430619D094EA2B
:100820000C0F02D150EA013613D195EA0C0F05D115
:1008300052EA03361CBF104619460AD181EA030169
:1008400001F0004141F0FE4141F470014FF0000021
:1008500070BD41F0FE4141F4780170BD70B54FF0BC
:10086000FF0C4CF4E06C1CEA11541DBF1CEA13553C
:1008700094EA0C0F95EA0C0F00F0A7F8A4EB05041E
:1008800081EA030E52EA03354FEA013100F0888015
:100890004FEA03334FF0805545EA131343EA1263DE
:1008A0004FEA022245EA111545EA10654FEA002693
:1008B0000EF000419D4208BF964244F1FD0404F54C
:1008C000407402D25B084FEA3202B61A65EB0305A8
:1008D0005B084FEA32024FF480104FF4002CB6EB65
:1008E000020E75EB030E22BFB61A754640EA0C00E5
:1008F0005B084FEA3202B6EB020E75EB030E22BF25
:10090000B61A754640EA5C005B084FEA3202B6EB65
:10091000020E75EB030E22BFB61A754640EA9C0024
:100920005B084FEA3202B6EB020E75EB030E22BFF4
:10093000B61A754640EADC0055EA060E18D04FEAB2
:10094000051545EA16754FEA06164FEAC30343EA52
:1009500052734FEAC2025FEA1C1CC0D111F4801F1F
:100960000BD141EA00014FF000004FF0004CB6E718
:1009700011F4801F04BF01430020B4F1FD0C88BFB7
:10098000BCF5E06F3FF6AFAEB5EB030C04BFB6EBC2
:10099000020C5FEA500C50F1000041EB045170BDB5
:1009A0000EF0004E4EEA113114EB5C04C2BFD4EBE2
:1009B0000C0541EA045170BD41F480114FF0000E66
:1009C000013C90E645EA060E8DE60CEA135594EAE2
:1009D0000C0F08BF95EA0C0F3FF43BAF94EA0C0FE5
:1009E0000AD150EA01347FF434AF95EA0C0F7FF45A
:1009F00025AF104619462CE795EA0C0F06D152EAAE
:100A000003353FF4FDAE1046194622E750EA410691
:100A100018BF52EA43067FF4C5AE50EA41047FF4A2
:100A20000DAF52EA43057FF4EBAE12E74FF0FF3C07
:100A300006E000BF4FF0010C02E000BF4FF0010CD8
:100A40004DF804CD4FEA410C7FEA6C5C4FEA430C51
:100A500018BF7FEA6C5C1BD001B050EA410C0CBFA0
:100A600052EA430C91EA030F02BF90EA020F002002
:100A7000704710F1000F91EA030F58BF994208BF69
:100A800090422CBFD8176FEAE37040F00100704726
:100A90004FEA410C7FEA6C5C02D150EA013C07D17D
:100AA0004FEA430C7FEA6C5CD6D152EA033CD3D0C8
:100AB0005DF8040B704700BF8446104662468C46C2
:100AC0001946634600E000BF01B5FFF7B7FF0028F5
:100AD00048BF10F1000F01BD4DF808EDFFF7F4FF1E
:100AE0000CBF012000205DF808FB00BF4DF808EDA9
:100AF000FFF7EAFF34BF012000205DF808FB00BFCC
:100B00004DF808EDFFF7E0FF94BF012000205DF8ED
:100B100008FB00BF4DF808EDFFF7CEFF94BF0120A2
:100B200000205DF808FB00BF4DF808EDFFF7C4FF9B
:100B300034BF012000205DF808FB00BF4FEA410CE4
:100B40007FEA6C5C02D150EA013C0AD14FEA430CC7
:100B50007FEA6C5C02D152EA033C02D14FF0000004
:100B600070474FF0010070474FEA410212F5001242
:100B700015D211D56FF47873B3EB625212D94FEAE4
:100B8000C12343F0004343EA505311F0004F23FACE
:100B900002F018BF404270474FF00000704750EA23
:100BA000013005D111F0004008BF6FF000407047E0
:100BB0004FF00000704700BF53B94AB9002908BF81
:100BC00000281CBF4FF0FF314FF0FF3000F074B928
:100BD000ADF1080C6DE904CE00F006F8DDF804E094
:100BE000DDE9022304B070472DE9F047089D044673
:100BF0008E46002B4DD18A42944669D9B2FA82F2D0
:100C000052B101FA02F3C2F1200120FA01F10CFA0B
:100C100002FC41EA030E94404FEA1C48210CBEFB43
:100C2000F8F61FFA8CF708FB16E341EA034306FBCC
:100C300007F199420AD91CEB030306F1FF3080F05B
:100C40001F81994240F21C81023E63445B1AA4B2A8
:100C5000B3FBF8F008FB103344EA034400FB07F74A
:100C6000A7420AD91CEB040400F1FF3380F00A818B
:100C7000A74240F207816444023840EA0640E41B80
:100C800000261DB1D4400023C5E900433146BDE82C
:100C9000F0878B4209D9002D00F0EF800026C5E9CE
:100CA000000130463146BDE8F087B3FA83F6002EE6
:100CB0004AD18B4202D3824200F2F980841A61EB5E
:100CC000030301209E46002DE0D0C5E9004EDDE77C
:100CD00002B9FFDEB2FA82F2002A40F09280A1EB64
:100CE0000C014FEA1C471FFA8CFE0126200CB1FBB9
:100CF000F7F307FB131140EA01410EFB03F08842B2
:100D000008D91CEB010103F1FF3802D2884200F23E
:100D1000CB804346091AA4B2B1FBF7F007FB1011D0
:100D200044EA01440EFB00FEA64508D91CEB04046E
:100D300000F1FF3102D2A64500F2BB800846A4EBC9
:100D40000E0440EA03409CE7C6F12007B34022FAB4
:100D500007FC4CEA030C20FA07F401FA06F31C43E3
:100D6000F9404FEA1C4900FA06F3B1FBF9F8200CF0
:100D70001FFA8CFE09FB181140EA014108FB0EF036
:100D8000884202FA06F20BD91CEB010108F1FF3A86
:100D900080F08880884240F28580A8F10208614492
:100DA000091AA4B2B1FBF9F009FB101144EA0141A0
:100DB00000FB0EFE8E4508D91CEB010100F1FF344B
:100DC0006CD28E456AD90238614440EA0840A0FBE3
:100DD0000294A1EB0E01A142C846A64656D353D0B9
:100DE0005DB1B3EB080261EB0E0101FA07F722FADD
:100DF00006F3F1401F43C5E9007100263146BDE806
:100E0000F087C2F12003D8400CFA02FC21FA03F368
:100E1000914001434FEA1C471FFA8CFEB3FBF7F0E9
:100E200007FB10360B0C43EA064300FB0EF69E420E
:100E300004FA02F408D91CEB030300F1FF382FD2A7
:100E40009E422DD9023863449B1B89B2B3FBF7F64F
:100E500007FB163341EA034106FB0EF38B4208D928
:100E60001CEB010106F1FF3816D28B4214D9023E69
:100E70006144C91A46EA004638E72E46284605E787
:100E80000646E3E61846F8E64B45A9D2B9EB020858
:100E900064EB0C0E0138A3E74646EAE7204694E7E8
:100EA0004046D1E7D0467BE7023B614432E730461B
:100EB00009E76444023842E7704700BF70B50D4D42
:100EC0000D4C641BA4100026A64209D10B4D0C4CFE
:100ED00006F028FD641BA4100026A64205D170BDB3
:100EE00055F8043B98470136EEE755F8043B984720
:100EF0000136F2E7B0810008B0810008B081000837
:100F0000B481000802440346934200D1704703F8BD
:100F1000011BF9E72DE9FF4755EC104B002D0E465C
:100F200019462B46BBBF05F100431D4600232D2368
:100F30000B700D9BDDF830A0914623F02008BCBF5C
:100F400022461446B8F1460F05D0B8F1450F00D13E
:100F50000136022100E0032103AB019302AB0093B1
:100F600045EC104B5346324600F0CAFCB8F1470F2F
:100F7000074602D119F0010F22D0B8F1460F07EB56
:100F8000060910D13B78302B0AD1002200232046DD
:100F90002946FFF7A1FD18B9C6F10106CAF800609D
:100FA000DAF8003099440022002320462946FFF752
:100FB00093FD08B1CDF80C903022039B4B4507D32D
:100FC000039B0E9ADB1B3846136004B0BDE8F08724
:100FD000591C03911A70F0E7F7B503460029B8BF12
:100FE000494203F8022BB4BF2D222B22092942705B
:100FF0002ADD0DF10704A4460A27A6460A4691FBFE
:10100000F7F607FB16153035632A04F1FF340EF8A6
:10101000015C3146F1DC3031AEF1020504F8011C0F
:10102000441C294661450AD30DF10902A2EB0E02C8
:10103000654588BF00221344181A03B0F0BD11F8AB
:10104000012B04F8012FEDE7302330318370C1709C
:10105000031DF1E72DE9F04F2DED028B8DB00C460D
:10106000DDF8608016461F46054601F037FAD0F8D5
:1010700000A05046FFF7B4F800230A9323680593B5
:10108000D8F8003094F818B0073323F0070303F1C1
:101090000802C8F80020D3E90023C4E91223D4E9E8
:1010A000128929F000430793CDF8188008EE100A42
:1010B0009F4BDDE906014FF0FF32FFF73FFD88BB94
:1010C000DDE906019A4B4FF0FF32FFF719FD48BBEF
:1010D0000022002340464946FFF708FD10B12D23AA
:1010E00084F84330934B9448BBF1470F94BF984624
:1010F000804603232361059B23F0040222604FF006
:101100000009009733460BAA2146284600F0D8F97B
:10111000013040F090804FF0FF300DB0BDEC028BFD
:10112000BDE8F08F42464B4640464946FFF706FD74
:1011300040B14B46002BBCBF2D2384F843307F4881
:101140007F4BD1E763680BF0DF0206925A1C3FD158
:1011500006236360059B616843F480620023039368
:101160000AABCDE901B309AB49EC108B00932260C7
:101170000DF123032846FFF7CDFE069B0999472B67
:10118000804608D1C81C02DB6368994241DDABF19F
:10119000020B5FFA8BFBBBF1650F20D801395A4671
:1011A00004F150000991FFF717FF0A9A1318012A5A
:1011B0008146236102DC2268D20701D50133236115
:1011C0009DF82330002B9CD02D2384F8433098E7E2
:1011D000069A472ABED1002BBCD10123B9E7BBF147
:1011E000660F18D1002963680BDD216113B92268ED
:1011F000D00702D501330B442361A1654FF00009EC
:10120000DEE713B92268D20701D50233F4E70123E0
:10121000F2E74FF0670B0A9B994205DB23682161D7
:10122000D807EAD54B1CE7E70029D4BFC1F1020279
:1012300001221344E0E723685A0507D42369424694
:1012400031462846B84701302CD164E7BBF1650F21
:1012500040F2E080D4E9120100220023FFF73CFCB9
:10126000002834D0374A012331462846B847013098
:101270003FF451AFDDE909239A4202DB2368D80726
:1012800010D518EE103A524631462846B84701307C
:101290003FF441AF4FF0000804F11A090A9B013BEB
:1012A000434509DC23689B0700F10581E0680B9B3F
:1012B0009842B8BF184630E701234A4631462846CF
:1012C000B84701303FF427AF08F10108E6E7099B72
:1012D000002B39DC1B4A012331462846B847013030
:1012E0003FF419AFDDE90923134302D12368D9077D
:1012F000D8D518EE103A524631462846B847013044
:101300003FF409AF4FF0000904F11A0A099B5B4250
:101310004B4501DC0A9B92E70123524631462846A1
:10132000B84701303FF4F7AE09F10109EEE700BF1D
:10133000FFFFEF7F447900084879000850790008E2
:101340004C790008547900080A9AA36D9A42A8BF04
:101350001A46002A914637DC4FF0000B29EAE9795A
:1013600004F11A02A36D0593A3EB09035B4533DC7B
:10137000DDE909239A423BDB2368DA0738D40A9B6C
:10138000059A09999A1AA3EB01099145A8BF9146BC
:10139000B9F1000F35DC4FF0000829EAE97904F1D2
:1013A0001A0ADDE909239B1AA3EB090343457FF7DA
:1013B00079AF0123524631462846B84701303FF401
:1013C000AAAE08F10108ECE713463146424628462A
:1013D000B8470130C0D19EE6012331462846059228
:1013E000B84701303FF497AE059A0BF1010BB9E70E
:1013F00018EE103A524631462846B8470130BED161
:1014000089E6059A4B46424431462846B8470130A2
:10141000C1D180E60A9A012A01DCDB0738D5012315
:10142000424631462846B84701303FF474AE18EEC4
:10143000103A524631462846B84701303FF46BAE69
:10144000D4E9120100220023FFF746FBD8B90A9B1A
:1014500008F10102013B31462846B84701300ED160
:1014600059E60123524631462846B84701303FF439
:1014700052AE08F101080A9B013B4345F1DC4B46A3
:1014800004F15002DCE64FF0000804F11A0AF2E71A
:1014900001234246DFE701234A4631462846B84742
:1014A00001303FF438AE08F10108E3680B995B1A8C
:1014B0004345F0DCFAE64FF0000804F11909F4E7BF
:1014C0002DE9F047164699468A680B69DDF82080B9
:1014D0009342B8BF1346336091F8432007460C4649
:1014E0000AB1013333602368990642BF336802337F
:1014F0003360256815F0060506D104F1190AE36882
:1015000032689B1AAB4226DC94F84320131E2268F3
:1015100018BF012392062BD404F1430249463846F2
:10152000C04701301ED02368E568326803F0060327
:10153000042B08BFAD1AA36822690CBF25EAE57524
:1015400000259342C4BF9B1AED1800261A34B542F9
:101550001AD1002008E00123524649463846C047C8
:10156000013003D14FF0FF30BDE8F0870135C6E709
:10157000E1185A1C302081F84300224494F84510A9
:1015800082F843100233C7E7012322464946384612
:10159000C0470130E6D00136D9E700002DE9FF470A
:1015A0000F7E0C9D782F914680460C469A4601F19D
:1015B000430207D8622F0AD8002F00F0D880582F96
:1015C00000F0A38004F1420584F842703AE0A7F1EC
:1015D0006303152BF6D801A151F823F03516000846
:1015E00049160008C5150008C5150008C5150008EE
:1015F000C515000849160008C5150008C5150008DE
:10160000C5150008C515000855170008791600080B
:1016100037170008C5150008C5150008771700081A
:10162000C515000879160008C5150008C51500087D
:101630003F1700082B681A1D1B682A6004F1420539
:1016400084F842300123A3E020682968060601F1EE
:1016500004030AD50E682B60002E03DA2D23764290
:1016600084F843305E480A2319E00E682B6010F0BE
:10167000400F18BF36B2EFE72B682068191D2960AC
:10168000010601D51E6802E04606FBD51E885448B7
:101690006F2F0CBF08230A23002184F843106568CC
:1016A000A560002DA2BF216821F0040121600EB9C0
:1016B000002D4DD01546B6FBF3F103FB1167C75D56
:1016C00005F8017D3746BB420E46F4D9082B0BD1F5
:1016D0002368DE0708D5236961689942DEBF30239D
:1016E00005F8013C05F1FF35521B2261CDF800A041
:1016F0004B4603AA21464046FFF7E2FE01304CD19B
:101700004FF0FF3004B0BDE8F087354881F84570F0
:101710002968236851F8046B29601D0614D5DF077A
:1017200044BF43F0200323601EB9236823F0200345
:1017300023601023B0E7236843F02003236078235D
:10174000284884F84530E3E7590648BFB6B2E6E7D3
:101750001546BBE72B6826686169181D28603506A9
:101760001B6801D5196002E07006FBD519800023C3
:1017700023611546BAE72B681A1D2A601D68626846
:1017800000212846FEF734FD08B1401B6060636805
:101790002361002384F84330A8E723692A46494699
:1017A0004046D0470130ABD023689B0713D4E06894
:1017B000039B9842B8BF1846A4E701233246494626
:1017C0004046D04701309BD00135E36803995B1A4E
:1017D000AB42F2DCEBE7002504F11906F5E700BFA8
:1017E00056790008677900082DE9F74F03690C69FD
:1017F000A3420746C0F28180013C01F1140800F1C8
:10180000140505EB8403019358F8243055F824207F
:1018100001339A424FEA840B08EB8409B2FBF3F6DA
:1018200031D34FF0000E4046AC46F24650F8042B40
:1018300093B206FB03E34FEA134E9BB2AAEB0303FA
:10184000DCF800A0120C13FA8AF306FB02E2009304
:10185000009B4FEA124E92B2C2EB1A4202EB2342B5
:10186000BDF80030814543EA02434CF8043B4FEA9F
:10187000224ADBD255F80B302BB9019B043B9D4229
:101880001A462ED33C61384601F0C4F8002824DB08
:10189000013628464FF0000C58F8042BD0F800E031
:1018A00093B2ACEB0303120C13FA8EF3C2EB1E429D
:1018B00002EB23429BB243EA0243C14540F8043B9A
:1018C0004FEA224CE8D255F8242005EB840322B9D4
:1018D000043B9D421A460AD33C61304603B0BDE842
:1018E000F08F1268043B002ACCD1013CC7E7126894
:1018F000043B002AF0D1013CEBE70020EEE70000BA
:101900002DE9F04F2DED048B57EC106B93B0456A29
:10191000DDF88080069110EE10AA044609920C931F
:10192000BB4675B9102000F0DDFD0246606220B9AB
:10193000A74BEA21A74801F075FAC0E901550560F7
:10194000C560636A196851B15A684A6001239340BF
:101950008B60204600F01CFE636A00221A603B1E6A
:10196000AABF002323F0004BC8F800309A4BBCBF3D
:101970000122C8F8002033EA0B031BD10C9A42F273
:101980000F731360CBF31303334300F09285219B55
:1019900063B9924B22E0924B01930833219A136072
:1019A000019813B0BDEC048BBDE8F08F8B4B019315
:1019B0000333F3E70022002350465946FFF78CF823
:1019C0004BEC19AB804658B10C9A01231360219B54
:1019D000002B00F06B8583481860431E0193DFE7FE
:1019E0004BEC10AB10AA11A9204601F0B9F8CBF3CB
:1019F0000A5508EE100A002D00F0848019EE903A86
:101A0000C3F3130343F07F57564647F44017A5F23C
:101A1000FF35CDF83880744B002230463946FEF74A
:101A20003BFC65A3D3E90023FEF7EEFD64A3D3E9F5
:101A30000023FEF733FC064628460F46FEF77AFDE4
:101A400061A3D3E90023FEF7DFFD02460B463046D3
:101A50003946FEF723FC06460F46FFF785F80022BD
:101A60000090002330463946FFF740F850B1009807
:101A7000FEF760FD32463B46FFF72EF810B9009B9B
:101A8000013B0093009B162B5AD8009A574B03EB4F
:101A9000C203D3E9002351EC190BFFF727F8002804
:101AA00050D0009B013B009300230B93109B5D1BC8
:101AB0006B1E059345BFC5F101030493002300236A
:101AC0004CBF05930493009B002B3DDB059B009AC4
:101AD0000A921344059300230793069B092B00F2F7
:101AE0008980052BC4BF043B0693069BA3F1020328
:101AF000CCBF00250125032B00F28780DFE803F02F
:101B00002D3A3859DDE910531D4405F23243202B9C
:101B1000C1BFC3F1400305F212400BFA03F326FAEA
:101B200000F0DABFC3F1200306FA03F01843FEF712
:101B3000F1FC01230646A1F1F877013D0E936AE717
:101B40000123B2E70B90B1E7049B009A9B1A049320
:101B50005342079300230A93BFE700230893099B8E
:101B6000002B55DC0123CDE902331A4609920CE023
:101B70000123F3E70023099A0893009B134402937F
:101B80000133012B0393B8BF0123606A0022426036
:101B9000042202F114069E4241683DD9204600F01D
:101BA000B7FC019000283BD1114B02464FF4D57190
:101BB000C0E60123DFE700BF61436F63A787D23F21
:101BC000B3C8608B288AC63FFB799F501344D33F2C
:101BD000857900089C7900080000F07F8179000871
:101BE00078790008557900080000F83FD87A000895
:101BF0001A7A000801250023069308954FF0FF3359
:101C0000CDE9023300221223B0E701230893F5E760
:101C1000099BCDE90233B8E7013141605200B8E7D2
:101C2000636A019A1A60039B0E2B00F29D80002DBF
:101C300000F09A80009B002B32DDB74A03F00F03BF
:101C400002EBC303D3E90089009BD8054FEA2317B1
:101C500016D5B24B51EC190BD3E90823FEF7FEFD64
:101C600007F00F0782468B460325AC4E57B9424614
:101C70004B4650465946FEF7F1FD82468B4628E01A
:101C80000225F2E7F90708D540464946D6E9002380
:101C9000FEF7BAFC0135804689467F100836E5E735
:101CA00000F09B80009B9D4F5E429B4B06F00F0215
:101CB00003EBC203D3E9002351EC190BFEF7A4FC9C
:101CC000361182468B4600230225002E7AD1002B46
:101CD000D3D10B9B002B00F08280914B0022504609
:101CE0005946FEF703FF002879D0039B002B76D0DE
:101CF000029B002B36DD009B504659465F1E00229A
:101D0000884BFEF781FC029E82468B4601352846B1
:101D1000FEF710FC52465B46FEF776FC824B002233
:101D2000FEF7BCFAD046D9468246A1F1507B002E80
:101D300058D17E4B002240464946FEF7ADFA524646
:101D40005B4680468946FEF7EFFE002840F095820C
:101D500052460BF1004340464946FEF7C7FE0028B5
:101D600040F089825BEC19AB119B002BC0F24881DB
:101D7000009A0E2A00F34481674B03EBC203D3E9B8
:101D80000089099B002B80F2D580039B002B00F378
:101D9000D18040F06F82654B002240464946FEF7F5
:101DA00033FC52465B46FEF7B5FE039E37460028DD
:101DB00040F04582019D312305F8013B009B013332
:101DC000009340E2F20705D5D7E90023FEF71CFC9B
:101DD000013501237610083777E7022579E7009F60
:101DE000039E94E701994C4B31440D91089903EB04
:101DF000C60353E90223002943D04D490020FEF7D2
:101E00002DFD52465B46FEF747FA019D82468B4602
:101E100049464046FEF7A8FE0646FEF78BFB024603
:101E20000B4640464946FEF737FA303605F8016B57
:101E300052465B4680468946FEF758FE002863D12D
:101E400042464B4636490020FEF726FA52465B468C
:101E5000FEF74CFE002840F0B5800D9B9D4281D0DE
:101E6000304B002250465946FEF7CEFB2D4B8246A2
:101E70008B46404649460022FEF7C6FB804689460F
:101E8000C6E750465946FEF7BFFB0D9B019D0F93D9
:101E900082468B4649464046FEF766FE0646FEF7FA
:101EA00049FB303602460B4640464946FEF7F4F9F8
:101EB00005F8016B0D9B9D42804689464FF000025C
:101EC00024D11B4B50465946FEF7E8F902460B4613
:101ED00040464946FEF728FE002873D152465B462D
:101EE00013490020FEF7D8F902460B464046494602
:101EF000FEF7FCFD00283FF435AF0F9D6B1E0F93DE
:101F000015F8013C302BF8D0009749E0054BFEF75F
:101F10007BFB80468946BDE7D87A0008B07A000886
:101F20000000F03F0000244000001C40000014406E
:101F30000000E03F019D56465F4642464B46304614
:101F40003946FEF78BFCFEF70FFE8246FEF7F2FAEB
:101F500042464B46FEF758FB02460B463046394692
:101F60000AF13006FEF798F905F8016B019E039F10
:101F7000AE1BB74202460B4635D1FEF78FF94246FB
:101F80004B4606460F46FEF7CFFDD0B942464B46BC
:101F900030463946FEF7A0FD10B11AF0010F10D1FE
:101FA000204618EE101A00F0F3FA002300982B7068
:101FB0000C9B01301860219B002B3FF4F1AC1D609D
:101FC000EEE4009F2B461D4613F8012D392A06D159
:101FD000019A9A42F7D10199302201370A701A7892
:101FE00001321A7090E7A64B0022FEF70DFB00228B
:101FF000002306460F46FEF76FFD00289DD0CFE771
:10200000089A002A00F0D780069A012A00F3BA80C5
:102010000E9A002A00F0B28003F23343079E049D1B
:10202000049A1A440492059A01211A442046059202
:1020300000F066FB0746002D0CDD059B002B09DD3B
:10204000AB42049AA8BF2B46D21A0492059AED1A05
:10205000D31A0593079B1BB3089B002B00F0AF809E
:10206000002E13DD39463246204600F009FC18EEFA
:10207000102A01460746204600F058FB18EE101AB9
:102080008046204600F084FA08EE108A079B9A1BCF
:1020900006D018EE101A204600F0F2FB08EE100AE7
:1020A0000121204600F02CFB0A9B002B064640F342
:1020B00088801A460146204600F0E2FB069B012B71
:1020C000064640F381804FF00008336906EB830336
:1020D000186900F0C5FAC0F12000059B184410F003
:1020E0001F0000F09280C0F12003042B40F38A808F
:1020F000C0F11C00049B03440493059B0344054466
:102100000593049B002B07DD18EE101A1A46204693
:1021100000F010FC08EE100A059B002B05DD31468F
:102120001A46204600F006FC06460B9B002B6ED09C
:1021300018EE100A314600F06DFC002867DA009BAB
:10214000013B18EE101A00930A220023204600F0EB
:1021500041FA089B08EE100A002B00F0B181002321
:1021600039460A22204600F035FA029B002B07462A
:1021700000F38E80069B022B51DC89E0109BC3F19B
:1021800036034BE7039B5E1E079BB342BFBF079B13
:102190000796F21A0A9BB6BF9B189E1B0A93039BD5
:1021A000B8BF0026002BB7BFDDE90323DDE9033507
:1021B0009D1A002334E7079E049D089F3BE7079A7A
:1021C00067E7069B012B18DCBAF1000F15D1CBF3A2
:1021D000130393B92BF000431B0D1B0583B1049B24
:1021E00001330493059B013305934FF001080A9BCB
:1021F000002B7FF46AAF01206FE74FF00008F6E78D
:102200009846F4E73FF47DAF18461C3072E7039B15
:10221000002B37DC069B022B34DD039B0293029BD1
:102220006BB931460522204600F0D4F90146064636
:1022300018EE100A00F0EEFB00283FF7BBAD099B3B
:10224000019DDB4300934FF000083146204600F02B
:102250009FF9002F3FF4A4AEB8F1000F05D0B845A8
:1022600003D04146204600F093F93946204600F05D
:102270008FF995E600263746E1E70097374699E55E
:1022800000002440089B002B00F0CA80039B0293AF
:10229000002D05DD39462A46204600F04BFB074657
:1022A000B8F1000F5BD07968204600F031F905469F
:1022B00028B9874B024640F2EA21FFF73BBB3A6957
:1022C0000232920007F10C010C3000F013F90122E8
:1022D0002946204600F02EFB019B03F10109DDE9B0
:1022E0000123134405930AF00103B84604930746FB
:1022F000314618EE100AFFF777FA4146029000F1D6
:10230000300A18EE100A00F085FB3A460390314679
:10231000204600F09BFBC26809F1FF3B054602BB6B
:10232000014618EE100A00F075FB024629462046C9
:10233000079200F02DF9DDE9063243EA0201049B21
:102340000B434D460FD1BAF1390F2AD0039B002B16
:1023500002DD029B03F1310A8BF800A075E73846D5
:10236000BAE70122E2E7039B002B04DB06990B434B
:1023700004990B4322D1002AEEDD18EE101A012237
:10238000204600F0D7FA314608EE100A00F042FB72
:10239000002803DCE0D11AF0010FDDD0BAF1390FCB
:1023A000D7D139238BF800302B461D46013B15F859
:1023B000012C392A71D001321A7046E7002A07DD54
:1023C000BAF1390FEDD00AF101038BF800303CE788
:1023D000059B09F801AC994547D018EE101A002367
:1023E0000A22204600F0F6F8B84508EE100A4FF031
:1023F00000034FF00A024146204606D100F0EAF8F9
:102400008046074609F1010972E700F0E3F8394612
:10241000804600230A22204600F0DCF80746F1E758
:10242000039B0293019D18EE100A3146FFF7DCF979
:1024300000F1300A019B05F801ABEA1A029B9342B6
:1024400009DD18EE101A00230A22204600F0C2F817
:1024500008EE100AE7E7029B002BC8BF1D46019B50
:10246000D8BF01251D444FF0000818EE101A0122B4
:10247000204600F05FFA314608EE100A00F0CAFA72
:10248000002891DC02D11AF0010F8DD12B461D4698
:1024900013F8012D302AFAD0D7E6019A9A4284D156
:1024A000009B0133009331231370CEE6094BFFF7F5
:1024B00095BA219B002B7FF46EAA074BFFF78EBACB
:1024C000029B002BAEDC069B022B3FF7A8AEA9E7D0
:1024D0001A7A000854790008787900080048704793
:1024E00054010020024B0146186800F017BC00BFE1
:1024F000000000200A44914200F1FF3300D17047F0
:1025000010B511F8014B03F8014F9142F9D110BDFC
:1025100070B5466A04460D4676B91020FFF7E2FF13
:102520000246606220B9184B1848662100F07AFC18
:10253000C0E901660660C660666AF36883B1636AD3
:10254000DB6853F82500B8B9012101FA05F6721DC0
:102550009200204600F060FB60B1C0E901560EE039
:1025600021220421204600F057FB636AF060DB68FB
:10257000002BE4D1002070BD026843F82520002321
:10258000C0E90333F7E700BF857900082B7A00081C
:1025900070B5466A05460C4676B91020FFF7A2FFD3
:1025A0000246686220B9094B09488A2100F03AFCCA
:1025B000C0E901660660C6603CB16B6A6268DB68B0
:1025C00053F82210216043F8224070BD857900083D
:1025D0002B7A00082DE9F0410D6907460C461E468E
:1025E00001F1140C0020DCF8003099B202FB01610B
:1025F0001E0C0B0C02FB063389B2013001EB0341C8
:1026000085424CF8041B4FEA1346ECDC0EB3A3687A
:10261000AB4219DC616838460131FFF779FF80462B
:1026200028B902460C4B0D48B52100F0FBFB22698E
:10263000023204F10C0192000C30FFF75BFF2146DF
:102640003846FFF7A5FF444604EB850301355E617C
:1026500025612046BDE8F0811A7A00082B7A00082F
:10266000030C1B04D3B90004102310F07F4F04BFE8
:102670000002083310F0704F04BF0001043310F063
:10268000404F04BF80000233002805DB10F0804F6C
:1026900003F1010308BF2023184670470023E4E735
:1026A000036813F0070201460BD0DA0723D498071A
:1026B00049BF5B089B0801200B605CBF0B600220D8
:1026C000704798B2A8B91B0C1020DAB20AB90830CA
:1026D0001B0A1A0704BF1B0904309A0704BF9B0892
:1026E0000230DA0703D45B0800F1010005D00B606B
:1026F00070471046E9E7002070472020704700002F
:1027000010B50C460121FFF703FF024628B9054B1F
:1027100005484FF4A07100F085FB0123446103617B
:1027200010BD00BF1A7A00082B7A00082DE9F04F7F
:1027300091460A69D9F810309A42B8BF0B460C4648
:10274000BCBF4C4699462769D9F810A0A3686168B8
:1027500007EB0A06B34285B0B8BF0131FFF7D8FED8
:1027600030B90246444B454840F25D1100F05AFB37
:1027700000F1140505EB86082B460022434521D3C2
:1027800004F1140303EB870709F1140303EB8A0236
:1027900002923A1B153A22F00302043204F11501A9
:1027A0008F4238BF04220192029A03939A420CD8B6
:1027B000002E03DD58F8043D002B5AD0066105B009
:1027C000BDE8F08F43F8042BD8E7B3F800A0BAF1C6
:1027D000000F24D004F1140EA9464FF0000C5EF84F
:1027E000042BD9F800101FFA82FB89B20AFB0B11E7
:1027F0004FEA124BD9F8002061444FEA124C0AFB11
:102800000BC202EB114289B241EA0241774549F815
:10281000041B4FEA124CE2D8019A45F802C0039A11
:10282000B2F802900433B9F1000F20D0296804F106
:10283000140CAE464FF0000ABCF800B0BEF80220FF
:1028400009FB0B22924489B241EA0A414EF8041B6B
:102850005CF8042BBEF80010120C09FB021101EB0E
:102860001A4167454FEA114AE6D8019AA950043542
:102870009AE7013E9CE700BF1A7A00082B7A00080D
:102880002DE9F843154612F0030206460F4607D01D
:10289000254C013A002354F82220FFF79BFE0746FF
:1028A000AD103DD0746A7CB91020FFF71BFE0246C4
:1028B000706228B91D4B1E484FF4D77100F0B2FA70
:1028C000C0E901440460C460D6F82480D8F8084008
:1028D0004CB940F271213046FFF712FF0023C8F8CF
:1028E0000800044603604FF00009EB070AD539469B
:1028F00022463046FFF71AFF394680463046FFF73A
:1029000047FE47466D100BD0206838B92246214655
:102910003046FFF70BFF2060C0F800900446E4E764
:102920003846BDE8F88300BFA07B00088579000821
:102930002B7A00082DE9F0470C464968236903EB20
:102940006218A368074691464FEA621A08F1010629
:10295000B3420BDB3846FFF7DBFD054648B90246BC
:102960002A4B2B4840F2D91100F05CFA01315B0090
:10297000EEE7002300F1140100F110021846534560
:1029800037DB20692AEAEA7A04F1140319F01F09F7
:1029900001EB8A0103EB80002FD0C9F1200E8A469B
:1029A0004FF0000C1A6802FA09F242EA0C024AF8E7
:1029B000042B53F8042B984222FA0EFCF2D8031B86
:1029C000153B23F00303043304F11502904238BF92
:1029D000042341F803C0BCF1000F01D008F1020646
:1029E000013E38462E612146FFF7D2FD2846BDE85C
:1029F000F08742F8040F0133C1E7043953F8042B80
:102A000041F8042F9842F9D8EAE700BF1A7A000883
:102A10002B7A000830B502690C69121B0ED100F147
:102A20001403143103EB840001EB840150F8045DBE
:102A300051F8044DA54203D005D30122104630BD04
:102A40008342F3D3FAE74FF0FF32F7E72DE9F84F6F
:102A50000C460646114620469046FFF7DBFF051E52
:102A600010D129463046FFF753FD30B93A4B0246A4
:102A700040F23221394800F0D5F90123C0E904358C
:102A8000BDE8F88FA4BF4346A0463046D8F80410EE
:102A9000A6BF1C4600250125FFF73AFD20B92E4BA5
:102AA00002464FF41071E5E7D8F810702669C5604A
:102AB00004F1140908F1140500F1140E05EB870C5C
:102AC00009EB860608F11002F246002159F8043B92
:102AD00052F804BF1FFA83F811FA8BF11B0CA1EB1B
:102AE0000808C3EB1B4303EB28431FFA88F81914AB
:102AF0004E4548EA03434AF8043BE7D8331B153BED
:102B000023F0030304331534A64238BF04231D44C5
:102B100073449E462E4666450ED30CF10302521BAB
:102B200022F00302033DAC4538BF00221A4452F89C
:102B3000043D7BB10761A3E756F8048B11FA88F2D4
:102B4000141404EB184492B242EA04424EF8042BE7
:102B50002114E0E7013FEAE71A7A00082B7A00081F
:102B60002DE9F7438946012157EC106B9046FFF79A
:102B7000CFFC044630B90246254B264840F20A31C4
:102B800000F050F9C7F30A55C7F3130335BB002E05
:102B9000019328D068460096FFF782FD009900B3A4
:102BA000019AC0F1200302FA03F30B43C2406361B0
:102BB0000192019BA361002B14BF0222012222611A
:102BC000D5B1A5F233450544C9F80050C0F1350030
:102BD000C8F80000204603B0BDE8F08343F480133A
:102BE000D5E76161E5E701A8FFF75AFD019B636145
:102BF000012222612030E3E704EB8203A0F232409D
:102C0000C9F800001869FFF72BFDC0EB4210DFE7A1
:102C10001A7A00082B7A000837B5A1FB02244CB9B8
:102C20001146019200F07AF8019A054630B928461B
:102C300003B030BD0C2202600025F8E72146FEF704
:102C400061F9F4E737B5002944D051F8043C01900C
:102C5000002BA1F10404B8BFE41800F025F91E4AC6
:102C60000198136833B96360146003B0BDE8304065
:102C700000F020B9A34208D9256861198B4201BF31
:102C800019685B6849192160EDE71A465B680BB16A
:102C9000A342FAD911685518A5420BD124682144E2
:102CA0005418A3421160E0D11C685B685360214452
:102CB0001160DAE702D90C230360D6E725686119B1
:102CC0008B4204BF19685B68636004BF49192160C7
:102CD0005460CAE703B030BDE402002070B50E4E68
:102CE0000C463168054611B900F08CF83060214679
:102CF000284600F087F8431C0AD0C41C24F00304C3
:102D0000A04207D0211A284600F07CF8013001D1FA
:102D10004FF0FF34204670BDE80200202DE9F0415D
:102D2000CD1C25F0030508350C2D38BF0C25002DD2
:102D3000074601DBA94205D90C233B60002630463B
:102D4000BDE8F0812E4E00F0AFF833681C4634BB6E
:102D500029463846FFF7C2FF431C04464DD134686C
:102D60002646002E40D123683146384604EB03083E
:102D700000F048F880453AD1216803356D1A25F0F6
:102D8000030508350C2D38BF0C2529463846FFF7BA
:102D9000A5FF01302BD023682B4423600EE022686E
:102DA000521B1ED40B2A16D96119A342256018BFE5
:102DB0005960636808BF316062514B60384604F166
:102DC0000B0600F077F826F00706231DF21AB6D09E
:102DD0009B1BA350B3E76268A3420CBF32605A60EA
:102DE000ECE723466468B2E734467668B9E70C231B
:102DF0003B60384600F05EF8A1E72560DEE700BFE3
:102E0000E402002038B5064D0023044608462B6036
:102E100004F070FD431C02D12B6803B1236038BD60
:102E2000EC0200201FB514461A46094B1B680546E4
:102E3000D8684CB1074B0091CDE9013406492B46C7
:102E400000F00EF800F064FA044B1C46F3E700BFF4
:102E500000000020AC7B0008B97B0008E77B00087D
:102E60000EB403B5014603AB054853F8042B0068C4
:102E7000019300F04FF802B05DF804EB03B0704727
:102E80000000002082B001B901A942B14BB1137812
:102E90000B601278101E18BF012002B07047104658
:102EA000FBE76FF00100F8E7014800F0F1BB00BF5D
:102EB000F0020020014800F0ECBB00BFF00200204F
:102EC0009368013B002B10B4936008DA9469A34225
:102ED00001DB0A2903D15DF8044B00F04BB91368FC
:102EE000581C1060197008465DF8044B7047F8B51F
:102EF00006460F461446D518AC4201D1002007E023
:102F000014F8011B3A463046FFF7DAFF431CF3D1B1
:102F1000F8BD00002DE9F04F0D469DB014469846CF
:102F2000064618B183690BB900F014FB894B9D422A
:102F30001BD175686B6ED90705D4AB899A0502D48D
:102F4000A86D00F0A5FBAB891B0701D52B69EBB978
:102F50002946304600F06EF9C0B16B6EDC070ED525
:102F60004FF0FF301DB0BDE8F08F7B4B9D4201D18B
:102F7000B568DFE7794B9D4208BFF568DAE7AB89B2
:102F80009805EDD4A86D00F084FBE9E700230993D0
:102F900020238DF82930CDF80C803023DFF8C08154
:102FA0008DF82A304FF0010923469A4613F8012B79
:102FB0000AB1252AF9D1BAEB040B0BD05B462246A5
:102FC00029463046FFF793FF013000F0AA80099AA6
:102FD0005A4409929AF80030002B00F0A280002396
:102FE0004FF0FF32CDE905230AF1010A049307935C
:102FF0008DF853301A935446052214F8011B584893
:10300000FDF7F6F8049AD8B9D10644BF20238DF80D
:103010005330130744BF2B238DF853309AF80030F8
:103020002A2B15D0079A544600204FF00A0C21464F
:1030300011F8013B303B092B4ED9B0B1079214E097
:10304000A0EB080309FA03F313430493A246D2E763
:10305000039B191D1B680391002BBBBF5B4242F011
:10306000020207930793B8BF049223782E2B0CD14A
:1030700063782A2B35D1039B1A1D1B680392002B02
:10308000B8BF4FF0FF3302340593DFF8E4A0217896
:1030900003225046FDF7ACF840B14023A0EB0A00F4
:1030A00003FA00F0049B03430134049314F8011B5A
:1030B0002C488DF828100622FDF79AF800283FD0FA
:1030C000294B1BBB039B073323F0070308330393F0
:1030D000099B3B44099367E70CFB02320C46012035
:1030E000A5E700230134059319464FF00A0C20464A
:1030F00010F8012B303A092A03D9002BC5D00591CD
:10310000C3E70CFB012104460123F0E703AB009366
:103110002A46164B04A93046FDF79CFF0746781C4B
:10312000D6D16B6ED90705D4AB899A0502D4A86DA8
:1031300000F0AFFAAB895B063FF512AF099811E7D3
:1031400003AB00932A46094B04A93046FEF726FA42
:10315000E4E700BF247D0008447D0008047D0008EA
:10316000F27B0008FC7B000855100008EF2E0008D9
:10317000F87B0008F8B50E461446054618B1836979
:103180000BB900F0E7F9214B9C422BD16C68A36985
:10319000A360A3891A072FD523696BB3236920681D
:1031A000C01A6369F6B28342374604DC21462846DA
:1031B00000F03CF930BBA368013BA36023685A1CB4
:1031C00022601E7063690130834204D0A389DB074B
:1031D00006D50A2E04D12146284600F027F988B9E1
:1031E0003846F8BD0A4B9C4201D1AC68CFE7094B89
:1031F0009C4208BFEC68CAE72146284600F01AF84E
:103200000028CBD04FF0FF37EAE700BF247D00084D
:10321000447D0008047D000849B1FF2A85BF8A2348
:1032200003600A704FF0FF3098BF012070470846D6
:1032300070470000324B70B51D6806460C4625B13C
:10324000AB6913B9284600F085F92E4B9C420FD18B
:103250006C68A389B4F90C2019072CD4DD0611D4AD
:103260000923336042F04003A3814FF0FF303EE07A
:10327000254B9C4201D1AC68EBE7244B9C4208BF34
:10328000EC68E6E7580712D5616B41B104F14403DD
:10329000994202D03046FFF7D5FC00236363A3892F
:1032A00023F02403A3810023636023692360A3899F
:1032B00043F00803A38123694BB9A38903F4207366
:1032C000B3F5007F03D02146304600F009FAA0890B
:1032D000B4F90C2010F001030AD00023A360636945
:1032E0005B42A361236943B910F08000BAD170BD7D
:1032F000810758BF6369A360F4E70020F7E700BFC8
:1033000000000020247D0008447D0008047D0008A2
:1033100008B5062000F04CFA012004F001FB000083
:103320008A892DE9F041054610070C4658D44B68B0
:10333000002B05DC0B6C002B02DC0020BDE8F081CB
:10334000E66A002EF9D0002312F480522F682B6019
:1033500032D0606DA3895A0705D56368C01A636BC4
:103360000BB1236CC01A00230246E66A216A284684
:10337000B047431CA38906D129681D292CD82A4AA5
:10338000CA40D60728D500226260D904226922608B
:1033900004D5421C01D12B6803B96065616B2F60B5
:1033A0000029CAD004F14403994202D02846FFF70D
:1033B00049FC00206063C1E7216A01232846B04729
:1033C000411CC7D12B68002BC4D01D2B01D0162B5C
:1033D00001D12F60B1E7A38943F04003A381ADE79A
:1033E0000F69002FA9D093070E6808BF4B690F60C3
:1033F00018BF0023A6EB07088B60B8F1000F9CDD17
:10340000216AA66A43463A462846B047002806DCA9
:10341000A38943F04003A3814FF0FF308EE70744B8
:10342000A8EB0008E9E700BF0100402038B50B69B0
:1034300005460C4613B90025284638BD18B18369E6
:103440000BB900F087F8144B9C421BD16C68B4F99F
:103450000C30002BEFD0626ED00704D4990502D453
:10346000A06D00F015F928462146FFF759FF636E5D
:10347000DA070546E0D4A3899B05DDD4A06D00F0F2
:1034800008F9D9E7054B9C4201D1AC68DFE7044B52
:103490009C4208BFEC68DAE7247D0008447D000800
:1034A000047D0008002310B50446C0E90033C0E9DC
:1034B0000433836081814366C28183611946082297
:1034C0005C30FDF71FFD054B6362054BA362054BA6
:1034D000E362054B2462236310BD00BFE937000897
:1034E0000B3800084338000867380008014900F02D
:1034F000AFB800BF2D34000870B568224D1E55438B
:103500000E4605F17401FFF709FC044640B10021A5
:10351000C0E900160C30A06005F16802FDF7F2FC6E
:10352000204670BD014800F0B3B800BFF102002092
:10353000014800F0AEB800BFF1020020014800F0E1
:10354000A7B800BFF2020020014800F0A2B800BFF7
:10355000F202002010B50446FFF7F0FFA3691BB18B
:10356000BDE81040FFF7F0BFC4E912332365134BE9
:10357000134A1B68A262A34204BF0123A361204631
:1035800000F020F86060204600F01CF8A0602046A3
:1035900000F018F80022E06004216068FFF782FF65
:1035A000A06801220921FFF77DFFE06802221221B5
:1035B000FFF778FF0123A361D2E700BF407900083D
:1035C000ED340008F8B50746FFF7ACFF1E4B1E6848
:1035D000B36913B93046FFF7BDFF4836D6E9013469
:1035E000013B03D533680BB33668F7E7B4F90C50E9
:1035F000D5B9164BE36004F15800656600F047F852
:10360000FFF796FFC4E90155C4E904552560A5619B
:103610000822294604F15C00FDF774FCC4E90D554D
:10362000C4E912552046F8BD6834D9E7042138466C
:10363000FFF762FF044630600028D5D1FFF778FF1E
:103640000C233B60EEE700BF407900080100FFFF5C
:103650002DE9F8430646884600F148040027D4E9DE
:103660000195B9F1010905D52468002CF7D1384638
:10367000BDE8F883AB89012B07D9B5F90E300133CA
:1036800003D029463046C04707436835E9E770470D
:103690007047704770B50E46B1F90E10002996B00C
:1036A00014461D4608DAB6F90C3000222A601A06C4
:1036B00010D44FF480630EE06A4600F0FBF8002857
:1036C000F1DB019A02F47042A2F500535A425A41CA
:1036D0002A60EEE740230020236016B070BD000092
:1036E0008B8973B59D0706460C4607D504F1470341
:1036F000236023610123636102B070BD01AB6A46A0
:10370000FFF7C8FF009905463046FFF707FB48B9A9
:10371000B4F90C309A05EFD423F0030343F002030D
:10372000A381E3E70D4BB362A389206043F08003DC
:10373000A381009B6361019B20615BB1B4F90E1012
:10374000304600F0C9F828B1A38923F0030343F001
:103750000103A381A0890543A581CDE7ED340008CD
:103760001F2938B504460D4604D9162303604FF0CF
:10377000FF3038BD426C12B152F821304BB92046AF
:1037800000F030F82A4601462046BDE8384000F0F7
:1037900017B8012B0AD0591C03D11623036001204E
:1037A000E7E7002442F82540284698470020E0E754
:1037B000024B01461868FFF7D3BF00BF000000208E
:1037C00038B5074D00230446084611462B6004F027
:1037D00079F8431C02D12B6803B1236038BD00BFC8
:1037E000EC02002004F05EB810B50C46B1F90E10E2
:1037F00000F094F80028ABBF636DA3891B1823F475
:103800008053ACBF6365A38110BD2DE9F0411F4615
:103810008B89DB0505460C46164605D5B1F90E1019
:103820000223002200F068F8A389B4F90E1023F4F3
:103830008053A38132463B462846BDE8F04100F064
:1038400017B810B50C46B1F90E1000F055F8431C2E
:10385000A38915BF606523F4805343F48053A3818B
:1038600018BFA38110BDB1F90E1000F013B800000D
:1038700038B5074D04460846114600222A601A460C
:1038800004F046F8431C02D12B6803B1236038BD15
:10389000EC02002038B5064D0023044608462B6094
:1038A00003F0F0FF431C02D12B6803B1236038BD45
:1038B000EC02002038B5074D0023044608461146A7
:1038C0002B6003F0E7FF431C02D12B6803B1236098
:1038D00038BD00BFEC02002038B5064D0023044679
:1038E00008462B6003F0E6FF431C02D12B6803B1AE
:1038F000236038BDEC02002038B5074D0446084669
:10390000114600222A601A4603F0E4FF431C02D14C
:103910002B6803B1236038BDEC02002038B5074D99
:1039200004460846114600222A601A4603F0DAFFD0
:10393000431C02D12B6803B1236038BDEC02002088
:1039400030B589B000240394049405940694079438
:103950000094194B1A6B42F004021A631A6B02F0BE
:1039600004020092009A01941A6B42F080021A63DA
:103970001A6B02F080020192019A02941A6B42F0D3
:1039800001021A631B6B03F001030293029B0B4DB0
:1039900022464FF40051284602F05EFC4FF40053DB
:1039A0000393012304930594069403A9284602F087
:1039B00073FB09B030BD00BF003802400008024070
:1039C00008B502464FF40051014802F045FC08BD1D
:1039D0000008024000B583B08DF8070007E04FF4FF
:1039E0000051084802F03EFC322002F003FD0121A4
:1039F0000DF1070000F0E0F90028F0D103B05DF808
:103A000004FB00BF0008024008B572B64FF4005135
:103A1000034802F027FC642002F0ECFCF6E700BF4C
:103A20000008024072B6FEE708B50948094B03607A
:103A3000094B436000238360C36003610C22426131
:103A40008361C36102F072FD00B908BDFFF7EAFFB0
:103A5000F40200200010014090D0030000B595B0A2
:103A60003022002108A8FDF74DFA002303930493A8
:103A70000593069307930193214A116C41F08051FD
:103A80001164126C02F080520192019A02931D4A55
:103A9000136823F4404343F400431360136803F4B2
:103AA00040430293029B012308934FF48033099310
:103AB00002230E934FF480030F93192310934FF4B6
:103AC000A8731193042312930723139308A801F0FA
:103AD000BFFF80B90F2303930221049100230593B4
:103AE0004FF480520692079303A802F0FFF920B921
:103AF00015B05DF804FBFFF795FFFFF793FF00BFDC
:103B0000003802400070004008B502F047FCFFF7A3
:103B1000A5FFFFF715FFFFF787FF00F06FF8012003
:103B2000FFF74EFFFEE7FEE7FEE7FEE7FEE7FEE7F4
:103B300070477047704708B502F04AFC08BD0000A6
:103B400008B5024800F022FE08BD00BF1410002096
:103B500082B0002100910B4B5A6C42F480425A64AF
:103B60005A6C02F480420092009A01911A6C42F061
:103B700080521A641B6C03F080530193019B02B0C6
:103B8000704700BF0038024000B589B0002303939E
:103B90000493059306930793026803F1804303F5AA
:103BA00088339A4202D009B05DF804FB00210191EC
:103BB00003F594335A6C42F010025A645A6C02F0C6
:103BC00010020192019A02911A6B42F001021A63EB
:103BD0001B6B03F001030293029B4FF4C06303933A
:103BE00002230493032306930723079303A90248A0
:103BF00002F052FAD7E700BF0000024008B50022E9
:103C00000F49104802F0CCFC70B90F490D4802F082
:103C1000DEFC60B90D490B4803F0C0FC50B90948FF
:103C200002F0EFFC48B908BDFFF7FCFEEDE7FFF737
:103C3000F9FEEFE7FFF7F6FEF1E7FFF7F3FEF2E735
:103C4000D001002038030020400200202002002084
:103C500012230B8000487047EC01002004230B80E6
:103C60000048704700020020002393421ED200B596
:103C700010E00CF1370C01F813C000014FEA430CBF
:103C80000CF1010C4FF0000E01F80CE00133DBB237
:103C9000934209D24FEA107CB0F1204FE9D20CF1E7
:103CA000300C01F813C0E8E75DF804FB7047000032
:103CB00038B50B4BD3F8100AD3F8144AD3F8183A96
:103CC000C01800D138BD074D0822A91CFFF7CCFF52
:103CD000042205F112012046FFF7C6FFF2E700BFFC
:103CE0000070FF1F0402002008B51A230B80FFF7A5
:103CF000DFFF014808BD00BF0402002008B50A46E6
:103D000028B90549054803F0C8F9034808BD024928
:103D1000024803F0C2F9F8E714060020647D0008A9
:103D200010B50A46034C2146034803F0B6F9204675
:103D300010BD00BF14060020707D000808B50A46BB
:103D400028B90549054803F0A8F9034808BD024908
:103D5000024803F0A2F9F8E714060020787D000875
:103D600008B50A4628B90549054803F096F90348FD
:103D700008BD0249024803F090F9F8E71406002054
:103D8000847D0008002070470020704700207047A5
:103D900010B5064C00220649204603F00AFC0549EE
:103DA000204603F014FC002010BD00BF38030020A3
:103DB000140C002014080020094BD3F8BC32D3F8AF
:103DC00014320BB10120704710B5054C0A4601466C
:103DD000204603F0EEFB204603F005FC10BD00BFBB
:103DE0003803002070B582B005460E460E4C0146E1
:103DF000204603F0ECFB204603F012FC00240CE00C
:103E00002B5D8DF8073001210DF10700FFF7D4FF7E
:103E10009DF8070003F08CFC01343368A342EFD80F
:103E2000002002B070BD00BF3803002030B589B05B
:103E30000023039304930593069307930368B3F158
:103E4000A04F01D009B030BD00250195164C236B61
:103E500043F001032363236B03F001030193019BF0
:103E60004FF4C053039302230493032306930A23BE
:103E7000079303A90D4802F00FF9636B43F0800329
:103E800063630295636C43F480436364636C03F47F
:103E900080430293029B2A462946432002F0FEF902
:103EA000432002F033FACDE7003802400000024020
:103EB00008B500F2C441D0F8080502F0B8FB08BD0F
:103EC00008B501EBC10300EB8303D3F88C22D0F8D3
:103ED000080502F079FC08BD08B501EBC10300EB51
:103EE0008303DA6CD0F8080502F0D1FC08BD08B5F0
:103EF000D0F8080502F013FC08BD10B50446C368ED
:103F0000022B09D10121D4F8080502F0EEFBD4F808
:103F1000080502F0B8FB10BDFFF784FDF2E70000D2
:103F200010B50446D0F8080502F0E2FB2268D2F88A
:103F3000003E43F00103C2F8003E236A23B1034A66
:103F4000136943F00603136110BD00BF00ED00E0EC
:103F500008B5D0F8080502F0D5FB08BD08B5D0F8C3
:103F6000080502F004FC08BD08B5D0F8080502F009
:103F7000E7FB08BD08B5D0F8080502F00FFC08BD46
:103F800008B5D0F8080502F00BFC08BD02780AB1AC
:103F90000020704710B503461548C0F80835C3F82F
:103FA000C8024FF0A0430360042343600222C260B2
:103FB000002303618261C36103624362C3620363DE
:103FC00000F0F0F880B90A4C8021204600F0E6FEAF
:103FD00040220021204600F0BBFE80220121204625
:103FE00000F0B6FE002010BDFFF71CFDEBE700BFA0
:103FF00014100020D0F8C83211F0800F08D101F061
:104000007F0101EBC10103EB810191F87E02704752
:1040100001F07F0101EBC10103EB810191F83E004A
:10402000704708B5D0F8C80200F0DFFA08BD0000FC
:1040300000487047201500207047032805D8DFE8A6
:1040400000F005040205012070470320704708B501
:10405000D0F8C80200F03DF9FFF7EFFF08BD08B542
:1040600094461A466346D0F8C80200F011FAFFF7EA
:10407000E4FF08BD08B5D0F8C80200F04EFAFFF71B
:10408000DCFF08BD08B5D0F8C80200F0E6FAFFF77B
:10409000D4FF08BD08B5D0F8C80200F022FBFFF736
:1040A000CCFF08BD08B5D0F8C80200F0DDF9FFF775
:1040B000C4FF08BD08B5D0F8C80200F09FFAFFF7AA
:1040C000BCFF08BD08B5D0F8C80200F05FFAFFF7E2
:1040D000B4FF08BD2DE9F04383B0D0F8008001EBB8
:1040E000C10300EB8303DA6D5B6D9A4254D8074637
:1040F0000C469B1A01EBC10200EB8202926C9A42C1
:1041000000D31A4602F103094FEA990915E006F1B6
:1041100003094FEA990904EBC40507EB8505E96C2F
:104120003B7C0093B3B2E2B2404601F008FAEB6C7C
:104130003344EB64EB6D3344EB6508EB441303F558
:1041400010639B699BB24B4512D304EBC40207EB8F
:104150008202D16D536D99420AD24BB15B1A04EBC6
:10416000C40207EB8202966C9E42D0D31E46CEE775
:1041700004EBC40007EB80077A6DFB6D9A420FD801
:1041800004F00F040123A340D8F8344824EA0304C0
:10419000C8F83448002000E0012003B0BDE8F083F7
:1041A0000020FAE770B58AB0002800F0908005463C
:1041B000046890F8BD343BB3032385F8BD34E36B4A
:1041C00013F4807F01D100232B61286800F0D2FE18
:1041D0002C4654F8106BEC460FCCACE80F000FCC1B
:1041E000ACE80F0094E803008CE803002B1D0ECB15
:1041F000304600F001FE044658B1022385F8BD3474
:10420000012420460AB070BD80F8BC34FFF70EFED2
:10421000D2E70021286801F0A9FB234616E003EB52
:10422000C30205EB8202012182F83D1082F83C3086
:10423000A2F84430002182F840109164D16403EB6D
:10424000C30205EB820251650133DBB269688B4220
:10425000E5D316E004EBC40305EB8303002283F8E7
:104260007D2283F87C4283F88022C3F88822C3F839
:104270008C2204EBC40305EB8303C3F894220134BE
:10428000E4B2A142E6D82C4654F8106BEC460FCCB1
:10429000ACE80F000FCCACE80F0094E803008CE80A
:1042A00003002B1D0ECB304600F0C0FE044620B1AB
:1042B000022385F8BD340124A3E7002385F83830B4
:1042C000012385F8BD34286801F00DFB99E701242E
:1042D00097E7026890F8BC34012B19D010B504465A
:1042E000012380F8BC34836A012B09D0206800F0D8
:1042F0003BFE206801F0E9FA002084F8BC0410BD00
:104300008369012BF2D0936B43F480339363EDE721
:104310000220704770B504460D460068066C00EB3D
:10432000411303F530639A682169012911D0384996
:104330008E4256D03DB905EBC50304EB8303D3F899
:104340009432002B5ED0E9B22046FFF7B9FD002081
:1043500070BD12F0080F09D02E498E42F7D912F421
:10436000004FF4D04FF400429A60F0E712F0200FB3
:1043700002D020229A60EAE712F0280FE7D12549FF
:104380008E4206D912F4004F03D04FF400429A60D7
:10439000DDE705EBC50204EB8202D2F898121B6937
:1043A000C3F31203CB1AC2F89C327DB905EBC502E8
:1043B00004EB8202D2F894226AB105EBC50204EB49
:1043C0008202D2F88C120B44C2F88C32E9B2204639
:1043D000FFF776FDBBE704F2C442012101F008FBC0
:1043E000F4E712F4004F03D04FF400429A60AEE7B6
:1043F00012F0200F01D020229A60E9B22046FFF788
:104400005FFDA4E704F2C442002101F0F1FA9AE74B
:104410000A31544F0A30544F38B5044603681D6CB6
:1044200003EB4113D3F8081B0E4A954207D903F555
:10443000306311F4004F02D04FF400429A602046DE
:10444000FFF736FD074B9D4202D92369012B01D0AE
:10445000002038BD04F2C4420121206801F0C8FAEE
:10446000F6E700BF0A30544F90F8BC34012B0DD052
:1044700010B50446012380F8BC3480F83810006879
:1044800001F013FA002084F8BC0410BD022070472C
:1044900038B505468C4611F0800F29D101F00F0E7A
:1044A0000EEBCE04A40004F51E740444211D0EEB93
:1044B000CE0E00EB8E0E00208EF87D020CF00F0C5D
:1044C00081F800C0CA600B714A780AB1A1F808C02F
:1044D000022B1DD095F8BC34012B1CD0012385F88C
:1044E000BC34286800F07BFE002085F8BC0438BD91
:1044F00001F00F0000EBC00189003831294404317C
:1045000000EBC00005EB8000012480F83D40D5E7BA
:1045100000234B71DEE70220E9E710B504460A46A6
:1045200011F0800F20D101F00F0000EBC0039B00C1
:1045300003F51E732344191D00EBC00004EB80003B
:10454000002380F87D3202F00F020A7094F8BC3428
:10455000012B19D0012384F8BC34206800F08EFEB2
:10456000002084F8BC0410BD01F00F0000EBC00374
:104570009B0038332344191D00EBC00004EB80007E
:10458000012380F83D30DEE70220ECE710B501F0B2
:104590000F0404EBC401890001F51E7101440431CC
:1045A00004EBC40C00EB8C0CCCF88C22CCF89432CD
:1045B0000023CCF89C328CF87D328CF87C42036965
:1045C000012B06D064B9DAB2006800F0C7FE002003
:1045D00010BD04EBC40C00EB8C0CCCF89022F1E77E
:1045E000DAB2006800F0C2FFF1E701F00F0101EB61
:1045F000C10100EB8101D1F89C02704710B501F0B8
:104600000F0404EBC401890038310144043104EB88
:10461000C40C00EB8C0CCCF84C20CCF854300023AC
:10462000CCF85C3001238CF83D308CF83C400369B9
:10463000012B06D064B9DAB2006800F08FFE0020CA
:1046400010BD04EBC40C00EB8C0CCCF85020F1E74F
:10465000DAB2006800F08AFFF1E738B501F00F0523
:104660004268954239D804460B4611F0800F1FD19D
:1046700001EBC101890001F51E710144043103EB16
:10468000C30300EB8303002283F87D2201238B7098
:104690000D7094F8BC34012B21D0012384F8BC3474
:1046A000206801F0A7F88DB1002084F8BC0438BD63
:1046B00005EBC501890038310144043105EBC50320
:1046C00000EB8303012283F83D20DFE704F2C442BC
:1046D000217C206801F08CF9E6E70120E7E7022061
:1046E000E5E701F00F034268934231D810B5044664
:1046F00011F0800F1ED103EBC301890001F51E717B
:104700000144043103EBC30200EB8202002082F873
:104710007D0200228A700B7094F8BC34012B19D0F2
:10472000012384F8BC34206801F091F8002084F85B
:10473000BC0410BD03EBC3018900383101440431CE
:1047400003EBC30200EB8202012082F83D00E0E7A8
:10475000012070470220ECE708B511F0800F0CD162
:1047600001F00F0101EBC101890001F51E71014447
:104770000431006800F084FE08BD01F00F0101EB78
:10478000C1018900383101440431F2E72DE9F04FCD
:1047900083B004460568284601F0E4F810B103B080
:1047A000BDE8F08F0646206801F0ABF80028F6D08F
:1047B00005F50067BB68C3F30D23C4F8FC3420681B
:1047C00001F09FF810F0020F04D02268536903F043
:1047D00002035361206801F094F810F0100F13D019
:1047E0002268936923F010039361D5F8208008F0C4
:1047F0000F09C8F34343022B4BD0062B6FD022681E
:10480000936943F010039361206801F07AF810F483
:10481000002F76D1206801F074F810F4802F40F05A
:10482000E080206801F06DF80028C0F26381206804
:1048300001F067F810F4006F09D0BB6813F0010FA6
:1048400040F070812268536903F40063536120686B
:1048500001F057F810F4805F40F06881206801F0A3
:1048600050F810F4005F40F0B581206801F049F87D
:1048700010F0080F40F0C681206801F042F810F0F7
:10488000800F00F0D981AB6923F08003AB61012672
:10489000C2E147F6F07318EA030FB0D04FEA181BD5
:1048A0004FEAC903019309EBC90A04EB8A0AC8F36A
:1048B0000A12DAF88C12284600F072FFCBF30A0BCA
:1048C000DAF88C325B44CAF88C32019B4B4404EB1F
:1048D0008303D3F89C325B44CAF89C328FE70822EA
:1048E00004F2C441284600F05BFFC8F30A1809EB44
:1048F000C90204EB8202D2F89C324344C2F89C32D3
:104900007DE7206801F001F88046B14635E005EB0F
:1049100049130122C3F8082B49462046FFF7FAFC49
:104920003CE005EB49130822C3F8082B4946204612
:10493000FFF772FD35E009EBC90304EB830393F83D
:104940007F32012B41D005EB49130222C3F8082B1B
:104950001AF0200F04D005EB49132022C3F8082BCE
:104960001AF4005F05D005EB49134FF40052C3F869
:10497000082B09F101094FEA5808B8F1000F3FF47C
:1049800049AF18F0010FF4D05FFA89FB594620684F
:1049900000F0CBFF824610F0010FB8D11AF0080FDB
:1049A000BFD11AF0100F04D005EB49131022C3F841
:1049B000082B1AF0020FCBD06B6913F0800FBAD01E
:1049C0007B6843F480637B60B5E709EBC90304EBC4
:1049D0008303002283F87F2259462046FFF7BEFA60
:1049E000B1E7206800F099FF8046B14625E05946BE
:1049F0002046FFF771FA1AF0080F04D005EB4913AF
:104A00000822C3F808291AF0100F04D005EB491347
:104A10001022C3F808291AF0400F04D005EB4913FF
:104A20004022C3F808291AF0020F40D11AF0800F73
:104A30005BD109F101094FEA5808B8F1000F3FF4C2
:104A4000F0AE18F0010FF4D05FFA89FB59462068E8
:104A500000F074FF824610F0010FCCD009F00F0374
:104A6000012101FA03F27B6B23EA02037B6305EB6E
:104A70004913C3F8081923698B42B8D109EBC9035C
:104A800004EB8303996CDA6C0A44DA64B9F1000F21
:104A9000ADD109EBC90304EB83035B6D002BA6D1F9
:104AA00004F2C4420121206800F0A2FF9FE74946BA
:104AB000284600F065FA09EBC90304EB830393F879
:104AC0003F30012B05D005EB49130222C3F808291A
:104AD000ACE709EBC90304EB8303002283F83F2012
:104AE00059462046FFF740FAEDE749462046FFF7D2
:104AF000F1FA9EE77B6823F001037B6094F8F434BD
:104B0000012B08D02046FFF723FA2268536903F0EF
:104B1000004353618BE6002184F8F414204600F032
:104B200041F9F2E72046FFF7FBF98BE67B6823F0BB
:104B300001037B601021206800F022FA1AE005EBE7
:104B400046134FF67F31C3F80819D3F8002922F431
:104B50000012C3F80029C3F8081BD3F8002B22F475
:104B60000012C3F8002BD3F8002B42F00062C3F808
:104B7000002B01366368B342E1D8FB6943F00113AF
:104B8000FB61236BDBB1D7F8843043F00B03C7F82C
:104B900084307B6C43F00B037B64D5F8003823F43E
:104BA000FE63C5F8003804F2C442217C206800F09E
:104BB0001FFF2268536903F4805353614EE67B69FB
:104BC00043F4005343F02B037B613B6943F00B0339
:104BD0003B61E2E7206800F0FAFE206800F0EEFAA0
:104BE000E060266801F032FA0146227B304600F090
:104BF00049F92046FFF781F92268536903F400530D
:104C0000536132E62046FFF772F92268536903F0D8
:104C10000803536130E601366368B3420CD906EBF2
:104C2000C60304EB830393F87F32012BF3D1F1B277
:104C30002046FFF791FDEEE7206800F062FE10F4D9
:104C4000801F27D1206800F05CFE10F4001F5BD0AD
:104C5000012328E001366368B3421DD905EB4613F2
:104C6000D3F8002906EBC60304EB830393F8403026
:104C7000012BEFD1002AEDDA06EBC60304EB830328
:104C8000012283F83F2066F07F01C9B22046FFF77A
:104C900063FDDFE70126DEE72268536903F4801332
:104CA0005361CFE7013362689A4228D905EB43127A
:104CB000D2F8001B03EBC30204EB820292F88022BD
:104CC000012AEFD10029EDDA01F48031D4F8FC2477
:104CD00002F001029142E5D103EBC30204EB820230
:104CE000012182F87F12AA6942F08002AA616A69F2
:104CF00012F0800FD6D17B6843F400737B6022688A
:104D0000536903F400135361206800F0FAFD10F0BA
:104D1000804F10D1206800F0F4FD10F0040F3FF434
:104D20003EAD23685D6815F0040F0DD1226853680D
:104D30002B43536033E52046FFF71CF92268536983
:104D400003F080435361E5E72046FFF719F9EDE7EB
:104D500010B40468606A31B940EA0240A0620020E1
:104D60005DF8044B70478C46A36A00EB13400023A8
:104D700008E003F1400104EB8101496800EB1140B8
:104D80000133DBB20CF1FF318B42F2D340EA024037
:104D90000CF13F0104EB81014860E0E703685962D0
:104DA000002070477047000082B000230193019BF0
:104DB00001330193019A0F4B9A4215D80369002BD6
:104DC000F5DA00230193036943F001030361019BBA
:104DD00001330193019A074B9A4208D8036913F0F3
:104DE000010FF4D1002000E0032002B0704703203F
:104DF000FBE700BF400D030084B010B5044603A8D4
:104E000080E80E00089B012B1FD1A36B23F4803395
:104E1000A363E36823F4840323F04003E360E368BF
:104E200023F44013E3600F9B012B09D02046FFF7CA
:104E3000BBFF069B012B1BD0BDE8104004B07047A0
:104E4000E36843F48013E360F0E7E36843F0400372
:104E5000E3602046FFF7A8FF0C9B23B9A36B43F444
:104E60008033A363E5E7A36B23F48033A363E0E718
:104E7000A36843F00603A360A36843F02003A36084
:104E8000DAE70000022A0AD00921C26822F470522F
:104E9000C260C36843EA8123C36000207047234B8C
:104EA0000B44234A93422FD9224B0B44224A93426C
:104EB0002CD9A1F57403A3F51053204A934227D9A6
:104EC000A1F18373A3F5E7431D4A934222D31D4BFF
:104ED0000B441D4A93421FD91C4B0B441C4A93425E
:104EE0001CD31C4B0B441C4A934219D3A1F1B7733A
:104EF000A3F55853194A934214D3194B0B44194A3A
:104F0000934211D20721C0E70F21BEE70E21BCE773
:104F10000D21BAE70C21B8E70B21B6E70A21B4E767
:104F20000921B2E70821B0E70621AEE7405327FF89
:104F3000FF340C00401E1BFF3F420F007F4F12004A
:104F400020D6130060B6E5FE5FE3160000D3CEFE68
:104F500040771B00C05BB3FEC09121002075380074
:104F6000E05459FEE09C4100836843F001038360F4
:104F700000207047836823F001038360002070479E
:104F800082B000230193019B01330193019A0F4BDF
:104F90009A4215D80369002BF5DA002301938901A1
:104FA00041F020010161019B01330193019A074BFC
:104FB0009A4208D8036913F0200FF4D1002000E0D2
:104FC000032002B070470320FBE700BF400D030041
:104FD00082B000230193019B01330193019A0E4B90
:104FE0009A4213D80369002BF5DA002301931023AA
:104FF0000361019B01330193019A074B9A4208D840
:10500000036913F0100FF4D1002000E0032002B078
:1050100070470320FBE700BF400D0300D0F80038C5
:105020001943C0F8001800207047000084B02DE933
:10503000F041044607A880E80E00002306E003F1D3
:10504000400204EB82020021516001330E2BF6D99D
:10505000119F27BBD4F8043843F00203C4F8043886
:10506000A36B43F40013A363A36B23F40023A36394
:10507000A36B23F48023A3630023C4F8003E04F54C
:105080000065D4F80038C4F800380C9B012B14D10B
:10509000099B6BB900212046FFF7C0FF11E0A36B0D
:1050A00023F40013A363A36B43F40023A363E3E798
:1050B00001212046FFF7B2FF03E003212046FFF75E
:1050C000ADFF10212046FFF75BFF804608B14FF08F
:1050D00001082046FFF77CFF08B14FF001080023CC
:1050E0002B616B61EB610AE0C3B94FF00060C2F85D
:1050F000000900220A614FF67F328A600133079966
:10510000994210D904EB431202F51061D2F800095C
:105110000028E9DB0020C2F80009EAE74FF09040E0
:10512000C2F80009E5E700230AE0C3B14FF0904C54
:10513000C2F800CB002202614FF67F328260013359
:10514000994211D904EB431202F53060D2F8006B9A
:10515000002EEADB4FF0000CC2F800CBEAE74FF07C
:10516000006CC2F800CBE5E72B6923F480732B6158
:105170000023A3616FF0804363610A9B1BB9A3699D
:1051800043F01003A361A2690B4B1343A3610D9B72
:105190001BB1A36943F00803A361012F04D040466B
:1051A000BDE8F04104B07047A36943F0804343F089
:1051B0000403A361F3E700BF00383C80D0F808384F
:1051C00013F0060307D0022B07D0062B01D00F20C7
:1051D000704702207047002070470220704710B5CA
:1051E00091F800C04B78012B23D000F5006ED0F869
:1051F0001C380CF00F040122A24043EA0243C0F81D
:105200001C3800EB4C10D0F8003B13F4004F0ED1CB
:10521000D0F8003BCA68C2F30A02097942EA814227
:10522000134343F0805343F40043C0F8003B002095
:1052300010BDD0F81C280CF00F0E03FA0EF39BB231
:105240001343C0F81C3800EB4C10D0F8003913F4AD
:10525000004FECD1D0F80039CA68C2F30A020979CC
:1052600042EA814242EA8C5C43EA0C0343F08053F9
:1052700043F40043C0F80039D9E7000030B40B789C
:105280004A78012A26D000EB4313D3F8002B002ADA
:1052900052DBD0F83C480A7802F00F024FF0010CC4
:1052A0000CFA02F224EA0242C0F83C28D0F81C288A
:1052B000097801F00F010CFA01FC22EA0C42C0F857
:1052C0001C28D3F8001B234A0A40C3F8002B0020F7
:1052D00030BC704700EB4313D3F80029002A1EDBD3
:1052E000D0F83C580A7802F00F02012404FA02F2C6
:1052F00092B225EA0202C0F83C28D0F81C280978AE
:1053000001F00F018C40A4B222EA0404C0F81C484A
:10531000D3F80019104A0A40C3F80029D7E7D3F898
:10532000002942F00062C3F80029D3F8002942F0B6
:105330008042C3F80029D3E7D3F8002B42F0006283
:10534000C3F8002BD3F8002B42F08042C3F8002BA7
:105350009FE700BF0078F3EF007833EC70B40B7870
:105360004C78012C29D000EB431000F530631C6908
:10537000E40CE4041C611C6924F0FF5424F4C01400
:105380001C618C690CB1CC688C61CC68CC611C69E7
:1053900044F400241C611C69CD69C5F3120C44EA75
:1053A0000C041C61012A66D0D0F8003B43F0044392
:1053B000C0F8003B002070BC70478C696CBB00EBF0
:1053C0004314D4F8105925F0FF5525F4C015C4F83E
:1053D0001059D4F8105945F40025C4F81059D4F8E0
:1053E0001059ED0CED04C4F81059012A34D000EB2B
:1053F0004313D3F8002942F00442C3F800298B6913
:10540000002BD7D0D0F834380A7802F00F010122EF
:105410008A401343C0F83438CCE700EB431404F55A
:1054200010642569ED0CED042561256925F0FF5513
:1054300025F4C0152561CD688E69AE4200D98D6115
:10544000256945F40025256125698E69C6F3120C8E
:1054500045EA0C052561C8E74A691AB100EB43111A
:10546000C1F8142900EB4310D0F8002942F004429F
:10547000C0F800299EE70A69002A95D05A6193E78F
:1054800010B483B0024600230193487801280BD062
:105490000B7802EB4313D3F8000B00282DDB002020
:1054A00003B05DF8044B70470B7802EB4313D3F85D
:1054B0000049002C01DB0020F2E7D3F8004944F05A
:1054C0000064C3F800490B7802EB4313D3F800499A
:1054D00044F08044C3F80049019B01330193019CCF
:1054E00042F210739C42DBD80B7802EB4313D3F8E3
:1054F0000039002BF0DB0020D2E7D3F8000B40F09E
:105500000060C3F8000B0B7802EB4313D3F8000BD9
:1055100040F08040C3F8000B019B013301930198D8
:1055200042F21073984208D80B7802EB4313D3F879
:10553000003B002BF0DB0020B2E70120B0E710B504
:105540009DF8084084B903334FEA930E4FF0000CE6
:1055500008E000EB023303F5805351F8044B1C6064
:105560000CF1010CF445F4D3002010BDF0B583B06C
:105570000B784C78012C33D000EB431303F5306CDF
:10558000DCF81040E40CE404CCF81040DCF81040E7
:1055900024F0FF5424F4C014CCF810408C69002C83
:1055A00040F0C780DCF81040CD68C5F312052C43ED
:1055B000CCF81040DCF8104044F40024CCF8104043
:1055C000012A00F0D0800A79012A00F0D380D3F8B4
:1055D000002B42F00442C3F8002B002003B0F0BDC2
:1055E0008C6984BB00EB4314D4F8105925F0FF55A7
:1055F00025F4C015C4F81059D4F8105945F4002505
:10560000C4F81059D4F81059ED0CED04C4F8105931
:10561000012A4CD000EB4313D3F8004944F0044472
:10562000C3F800490C79012C6AD08B69002BD4D0C7
:10563000D0F834380A7802F00F0101228A4013436F
:10564000C0F83438C9E700EB4314D4F81059ED0C16
:10565000ED04C4F81059D4F8105925F0FF5525F47D
:10566000C015C4F81059D4F810698D69CF683D444D
:10567000013DB5FBF7F5494F07EAC5453543C4F889
:105680001059D4F810598E69C6F312063543C4F880
:10569000105904F510640D79012DB9D1256925F053
:1056A000C0452561256945F000552561B0E74A6987
:1056B0001AB100EB4314C4F814290A79012A08D05E
:1056C00000EB4313D3F8002942F00442C3F8002949
:1056D00083E7D0F8082812F4807F08D100EB43114B
:1056E000D1F8002942F00052C1F80029E8E700EBA8
:1056F0004311D1F8002942F08052C1F80029DFE7B8
:10570000D0F8084814F4807F0CD1D3F8004944F055
:105710000054C3F8004900920B8B0A780969FFF71F
:105720000EFF5AE7D3F8004944F08054C3F800490B
:10573000F1E7CD682C44013CB4FBF5F4A4B204FBC2
:1057400005F5CD61DCF81050144E06EAC4442C4334
:10575000CCF81040DCF81040CD69C5F312052C439D
:10576000CCF810402CE70A69002A3FF42CAFCCF8A3
:10577000142028E7D0F8082812F4807F06D1D3F847
:10578000002B42F00052C3F8002B20E7D3F8002B87
:1057900042F08052C3F8002B19E700BF0000F81F49
:1057A00000B583B0844608464FEA920E02F0030229
:1057B000002305E00CF58051096840F8041B013313
:1057C0007345F7D39AB10CF5805CDCF80030019397
:1057D0004FF0000C5FFA8CF3D900019BCB4000F82E
:1057E000013B0CF1010C013A92B2002AF2D103B054
:1057F0005DF804FB0B784A78012A14D000EB4310C3
:10580000D0F8002B002A06DB2BB1D0F8003B23F0A8
:105810008043C0F8003BD0F8003B43F40013C0F8CD
:10582000003B0020704700EB4310D0F80029002A0D
:1058300006DB2BB1D0F8003923F08043C0F80039E3
:10584000D0F8003943F40013C0F80039E9E70B78C9
:105850004A78012A0ED000EB4310D0F8003B23F425
:105860000013C0F8003B0B79023BDBB2012B15D9CA
:105870000020704700EB4310D0F8003923F40013E8
:10588000C0F800390B79023BDBB2012BF0D8D0F81D
:10589000003943F08053C0F80039E9E7D0F8003B05
:1058A00043F08053C0F8003BE2E7D0F8003823F41F
:1058B000FE63C0F80038D0F80038090101F4FE6139
:1058C0001943C0F8001800207047D0F8003E23F0BC
:1058D0000303C0F8003ED0F8043823F00203C0F8F8
:1058E000043800207047D0F8003E23F00303C0F8CE
:1058F000003ED0F8043843F00203C0F8043800201A
:1059000070474269806910407047D0F8183800F538
:105910000060C0691840000C7047D0F8183800F5D6
:105920000060C069184080B2704700EB4111D1F8A7
:10593000082B00F5006040691040704710B4D0F8A3
:105940001048D0F8343801F00F02D340DB01DBB24D
:10595000234300EB411000F51060806818405DF8AB
:10596000044B7047406900F00100704738B50546A8
:10597000C36823F0C043C360012913D019BBC368B7
:1059800043F08043C3600024012000F033FD013464
:105990002846FFF7E7FF08B1312CF5D9322C14D097
:1059A000002038BDC36843F00053C36000240120C9
:1059B00000F020FD01342846FFF7D4FF0128EDD088
:1059C000312CF4D9EAE70120EBE70120E9E7D0F830
:1059D000003923F4FF6323F00703C0F80039D0F83F
:1059E000043843F48073C0F8043800207047000086
:1059F00010B4046C154B9C4203D9D0F8003B002B2B
:105A000016DB0024C0F8104BD0F8104B44F40024EF
:105A1000C0F8104BD0F8104B44F01804C0F8104BED
:105A2000D0F8104B44F0C044C0F8104B012903D00B
:105A300000205DF8044B7047C0F8142BD0F8003BF1
:105A400043F08023C0F8003BF2E700BF0A30544F18
:105A5000002800F0E08170B582B00446036813F0BE
:105A6000010F3BD09F4B9B6803F00C03042B2CD001
:105A70009C4B9B6803F00C03082B21D06368B3F5A3
:105A8000803F4FD0B3F5A02F52D0964B1A6822F426
:105A900080321A601A6822F480221A606368002B30
:105AA00050D000F0A1FC05468E4B1B6813F4003F5C
:105AB00014D100F099FC401B6428F5D90320B1E112
:105AC000884B5B6813F4800FD8D0864B1B6813F4A7
:105AD000003F03D06368002B00F09F81236813F020
